:020000040000FA
:0718000002184E1A3E1A43C4
:01180700FFE1
:101808007FB8EF90181393901900730A20364CE5AF
:1018180066FF22EFF5662235313230313939001A48
:10182800F71AFC02507A000DFA20000DDC70000057
:101838000000020C00013F3F3F0404044040400008
:1018480000000002633A75818C75FF03759E0212D1
:101858001920024109022577902285E47E019360D0
:10186800F4A3FF543F30E509541FFEE493A360013D
:101878000ECF54E0B4E00EEFFAEEF9A3A3A3A3DA77
:10188800FDD9FB80D654C025E0604B5026E493A3D5
:10189800F85407240CC8C333C4540F4420C88340E9
:1018A80004F456800146F6DFE480B0010204081013
:1018B800204080E493A3FAE493A3F8E493A3C8C573
:1018C80082C8CAC583CAF0A3C8C582C8CAC583CAA4
:1018D800DFE9DEE78085E493A3F8E493A34003F609
:1018E8008001F208DFF402186319C119C619CB196F
:0718F800D019DA19EE19F313
:0118FF00FFE9
:10190000C0667419C0E0C082C08375660AE5FF54E2
:10191000CF4490F5FF22C0667419C0E0C082C08336
:10192000756620E5FF54CF4490F5FF22C066741918
:10193000C0E0C082C083756636E5FF54CF44A0F591
:10194000FF22C0667419C0E0C082C08375664CE592
:10195000FF54CF44B0F5FF229090232116909802B7
:1019600021169098052116909FF6211690A01C2113
:101970001690AFF6211690AFFD211690C54A21169C
:10198000908F7F211690C56A211690C81421169059
:10199000C4FE211690C4E7211690CB4321169095E2
:1019A0008B211690CBF4211690CC4C211690903CB4
:1019B000211690CD9E211690CDBA211690CEA12150
:1019C0001690CFDB211690D041211690D0772116AA
:1019D00090D0F3211690D150211690D1302116903D
:1019E000C637211690C591211690BF94211690BC40
:1019F000F5211690BC7B211690D160211690CF3C2A
:101A0000211690983921169098802116909C972144
:101A10001690D2882116909D74211690D4D8211644
:101A200090C761211690D503211690D548211690B4
:101A3000D566211690D5B1211690D5F8211690C4FF
:101A4000C3211690AE6A211690CA6F211690C84C19
:101A5000211690CA3F211690CA35211690D66321CF
:101A60001690D704211690D6CC211690D9092116AC
:101A700090D955211690D97B211690800C21429047
:101A80008001214290822C214290823D214290820D
:101A900056214290810D21429082B121429081C70E
:101AA00021429083B9214290809E21429080002162
:101AB000429086B9214290C04E212C90C04F212CDB
:101AC00090A7F6212C90BB9B212C908D70212C90FF
:101AD0008998212C90C420212C90C153212C90C690
:101AE00025212C90CB26212C90D424212C90D4C0BD
:101AF000212C90D4C3212C90C11B212C90DAA7213A
:101B00002C90DC2F212C90DC3A212C90DE70212CA3
:101B100090E331212C90E346212C90C8EA212C90AF
:101B2000E37A212C90E37F212C908AB2212C90CB58
:101B3000E1212C90CC72212C90CC8A212C00E70939
:101B4000F608DFFA8046E709F208DFFA803E88826D
:101B50008C83E709F0A3DFFA8032E309F608DFFAA5
:101B60008078E309F208DFFA807088828C83E309C9
:101B7000F0A3DFFA806489828A83E0A3F608DFFAA3
:101B8000805889828A83E0A3F208DFFA804C80D2F1
:101B900080FA80C680D4806980F28033801080A66D
:101BA00080EA809A80A880DA80E280CA80338982C5
:101BB0008A83ECFAE493A3C8C582C8CCC583CCF071
:101BC000A3C8C582C8CCC583CCDFE9DEE7800D8918
:101BD000828A83E493A3F608DFF9ECFAA9F0EDFB1F
:101BE0002289828A83ECFAE0A3C8C582C8CCC58367
:101BF000CCF0A3C8C582C8CCC583CCDFEADEE880C0
:101C0000DB89828A83E493A3F208DFF980CC88F031
:101C1000EF60010E4E60C388F0ED2402B404005062
:101C2000B9F582EB2402B4040050AF23234582238C
:101C3000901B8E73BB010689828A83E0225002E7E3
:101C400022BBFE02E32289828A83E49322BB010C39
:101C5000E58229F582E5833AF583E0225006E925FD
:101C600082F8E622BBFE06E92582F8E222E5822917
:101C7000F582E5833AF583E49322BB010989828AE0
:101C800083F8E028F022500327F722BBFE05F8E393
:101C900028F3228A838982F8E4932822BB010FF873
:101CA000E58229F582E5833AF583E028F0225009A0
:101CB000C58229F8E58226F622BBFE09C58229F8ED
:101CC000E22582F222F8EA2583F583E9932822BBF4
:101CD000010689828A83F0225002F722BBFE01F3BB
:101CE00022F8BB010DE58229F582E5833AF583E808
:101CF000F0225006E92582C8F622BBFE05E92582BE
:101D0000C8F222EF8DF0A4A8F0CF8CF0A428CE8DDD
:101D1000F0A42EFE22BC000BBE0029EF8DF084FF44
:101D2000ADF022E4CCF875F008EF2FFFEE33FEECB7
:101D300033FCEE9DEC984005FCEE9DFE0FD5F0E9DE
:101D4000E4CEFD22EDF8F5F0EE8420D21CFEADF0DD
:101D500075F008EF2FFFED33FD4007985006D5F0E2
:101D6000F222C398FD0FD5F0EA22C2D5EC30E70984
:101D7000B2D5E4C39DFDE49CFCEE30E715B2D5E49A
:101D8000C39FFFE49EFE121D15C3E49DFDE49CFC71
:101D90008003121D1530D507C3E49FFFE49EFE2289
:101DA000C5F0F8A3E028F0C5F0F8E58215827002CE
:101DB0001583E038F022A3F8E0C5F025F0F0E582C5
:101DC000158270021583E0C838F0E822BB010A8949
:101DD000828A83E0F5F0A3E022500687F009E71934
:101DE00022BBFE07E3F5F009E3192289828A83E426
:101DF00093F5F074019322BB010DC58229C582C5FC
:101E0000833AC583021DA05011C58229F808E5F068
:101E100026F618F5F0E58236F622BBFE11C58229BA
:101E2000F808E225F0F5F0F218E23582F222F8E542
:101E30008229F582E5832AF58374019325F0F5F074
:101E4000E4933822BB010A89828A83F0E5F0A3F08B
:101E5000225006F709A7F01922BBFE06F3E5F009A8
:101E6000F31922EF2BFFEE3AFEED39FDEC38FC22A0
:101E7000C3EF9BFFEE9AFEED99FDEC98FC22E88FF4
:101E8000F0A4CC8BF0A42CFCE98EF0A42CFC8AF0FE
:101E9000EDA42CFCEA8EF0A4CDA8F08BF0A42DCC00
:101EA0003825F0FDE98FF0A42CCD35F0FCEB8EF059
:101EB000A4FEA9F0EB8FF0A4CFC5F02ECD39FEE43F
:101EC0003CFCEAA42DCE35F0FDE43CFC2275F00884
:101ED000758200EF2FFFEE33FECD33CDCC33CCC572
:101EE0008233C5829BED9AEC99E58298400CF5828D
:101EF000EE9BFEED9AFDEC99FC0FD5F0D6E4CEFBFF
:101F0000E4CDFAE4CCF9A88222B800C1B90059BAEC
:101F1000002DEC8BF084CFCECDFCE5F0CBF978181A
:101F2000EF2FFFEE33FEED33FDEC33FCEB33FB1014
:101F3000D703994004EB99FB0FD8E5E4F9FA22782E
:101F400018EF2FFFEE33FEED33FDEC33FCC933C940
:101F500010D7059BE99A4007EC9BFCE99AF90FD84A
:101F6000E0E4C9FAE4CCFB2275F010EF2FFFEE336A
:101F7000FEED33FDCC33CCC833C810D7079BEC9AA9
:101F8000E899400AED9BFDEC9AFCE899F80FD5F032
:101F9000DAE4CDFBE4CCFAE4C8F922EF5BFFEE5AB9
:101FA000FEED59FDEC58FC22C3E49FFFE49EFEE4E5
:101FB0009DFDE49CFC22EB9FF5F0EA9E42F0E99D3A
:101FC00042F0EC6480C864809845F022EB9FF5F005
:101FD000EA9E42F0E99D42F0E89C45F022E8600F5D
:101FE000ECC313FCED13FDEE13FEEF13FFD8F1224B
:101FF000E8600FEFC333FFEE33FEED33FDEC33FC4F
:10200000D8F122BB010789828A8302207A5005E930
:10201000F8022249BBFE05E9F802225522E0FCA3A2
:10202000E0FDA3E0FEA3E0FF22E493FC740193FD36
:10203000740293FE740393FF22E0F8A3E0F9A3E097
:10204000FAA3E0FB227401FF3395E0FEFDFCA3A39D
:10205000A3E02FFFF0E582158270021583E03EFEBB
:10206000F0E582158270021583E03DFDF0E58215F2
:102070008270021583E03CFCF022ECF0A3EDF0A3AB
:10208000EEF0A3EFF022A8828583F0D083D08212F5
:10209000209D12209D12209D12209DE473E493A3A5
:1020A000C583C5F0C583C8C582C8F0A3C583C5F084
:1020B000C583C8C582C822A42582F582E5F0358390
:1020C000F58322E0FBA3E0FAA3E0F922F8E0FBA30A
:1020D000A3E0F925F0F0E582158270021583E0FA9D
:1020E00038F022EBF0A3EAF0A3E9F022E493FB74CA
:1020F0000193FA740293F922BB010789828A830251
:1021000020C35005E9F8022261BBFE05E9F802226E
:102110007389828A830220ECBB011A89828A83D068
:10212000F0D0E0F8D0E0F9D0E0FAD0E0FBE8C0E091
:10213000C0F00220E35016E9F8D083D082D0E0F955
:10214000D0E0FAD0E0FBC082C08302226ABBFE1658
:10215000E9F8D083D082D0E0F9D0E0FAD0E0FBC03B
:1021600082C08302227C22BB010DE58229F582E533
:10217000833AF5830220C35007E92582F8022261E1
:10218000BBFE07E92582F8022273E58229F582E584
:10219000833AF5830220ECBB0120E58229F582E534
:1021A000833AF583D0F0D0E0F8D0E0F9D0E0FAD06F
:1021B000E0FBE8C0E0C0F00220E35018E92582F817
:1021C000D083D082D0E0F9D0E0FAD0E0FBC082C06A
:1021D0008302226ABBFE18E92582F8D083D082D020
:1021E000E0F9D0E0FAD0E0FBC082C08302227C227A
:1021F000D083D082F8E4937012740193700DA3A37E
:1022000093F8740193F5828883E473740293686091
:10221000EFA3A3A380DF8A838982E473EC8EF0A40A
:10222000CCC5F0CCCDF8EFA4CEC5F02DFDE43CFC40
:10223000E8A42EC8C5F03DFDE43CFCEFA4FFE5F0AA
:1022400028FEE43DFDE43CFC22ECF608EDF608EE49
:10225000F608EFF622ECF208EDF208EEF208EFF2E3
:1022600022E6FB08E6FA08E6F922EBF608EAF608A9
:10227000E9F622E2FB08E2FA08E2F922EBF208EAC8
:10228000F208E9F2224103BF00E0020200001268F6
:10229000E002020002120EE00102000954E0010215
:1022A000000AA5E00502120B120E020421410627C6
:1022B000060114004106260141062401C12B011923
:1022C0000001170041286000C12EC12241223800C0
:1022D00041229EFF41229600C121C12041229F0040
:1022E0004122A00041229701C12441223700C12888
:1022F000013000C125C126412D2700C15843271BAD
:1023000000000041271A0041271E00C138C12FC11B
:10231000314F252BFF3DBD0BFF3DC901FF3DC801DE
:102320002211074925044C6966656C696E65004891
:10233000251A260380037A045A0141255000C1154D
:10234000C109C10FC117015C004125150041254F8E
:1023500000C101C10442253E00C841253C00412581
:102360002A6441250001C113C1114125410A4125BB
:1023700022FFC10C412529004125230041253AFEB9
:10238000C114C10241252600C10BC10DC108C107FE
:1023900041251900C110C10541254000C103C15D9F
:1023A000C143C142E0020212100044E00502124F94
:1023B000004404063DE0020212540013E00C021235
:1023C00056026E828352535A31063D0421E00502C3
:1023D00012620013FF063DE0020212670000412A6C
:1023E000BEFF412ABC04422ABF0000C1E4412ABA10
:1023F00000412ABD00432A58000000412A520041F2
:1024000025A6004125A501C1EB4329980000004104
:1024100029960041299B00C16E4126E6285B26CA09
:1024200000000000000000000000000000000000AC
:1024300000000000000000000000004F273A0000EC
:1024400000000000000000000000000000422749DA
:102450000080422609000042260B00004725DE00CE
:1024600000000000000041260D024325DB000000B3
:10247000422D13180000902AE9EBF0A3EAF0A3E93B
:10248000F0902AECE0FBA3E0FAA3E0F9121C34FE82
:10249000902AE9E0FBA3E0FAA3E0F9121C34FF6EF6
:1024A000702AEF600E902AEF74FFF5F0121DA04520
:1024B000F070037F0022902AEAE475F001121DA05B
:1024C000902AEDE475F001121DA080B5902AE9E094
:1024D000FBA3E0FAA3E0F9121C34FDD3EE6480F80C
:1024E000ED64809840037F0122902AECE0FBA3E09A
:1024F000FAA3E0F9121C34FFC3ED9FFF22C2D5E816
:1025000030E70FB2D5E4C39BFBE49AFAE499F9E40F
:1025100098F8EC30E717B2D5122533121F09E4C33F
:102520009BFBE49AFAE499F9E498F88003121F09F6
:1025300030D50DE4C39FFFE49EFEE49DFDE49CFCCA
:1025400022788CE4F6D8FD9000007F007E10E4F045
:10255000A3DFFCDEFA904FFFA3E583C39420401174
:10256000FEAF829020000E0FE48002F0A3DFFCDEBD
:10257000FA12192002186022320202DF0218034107
:1025800000E0002202180B2222220000021813E4AD
:10259000FFE1D20002181B75C801220002182300B7
:1025A0000000000002182B00000000000218330099
:1025B0000000000002183B00000000000218430069
:1025C0000000000002184B00000000000218530039
:1025D0000000000002185B00000000000218630009
:1025E0000000000002186B0000000000021873BB1E
:1025F000010689828A83E0225002E722BBFE02E3C1
:102600002289828A83E49322BB010CE58229F58228
:10261000E5833AF583E0225006E92582F8E622BBFD
:10262000FE06E92582F8E222E58229F582E5833A71
:10263000F583E49322BB010689828A83F02250024B
:10264000F722BBFE01F322F8BB010DE58229F582DA
:10265000E5833AF583E8F0225006E92582C8F622A0
:10266000BBFE05E92582C8F222C5F0F8A3E028F0F8
:10267000C5F0F8E582158270021583E038F022A3D8
:10268000F8E0C5F025F0F0E582158270021583E0D0
:10269000C838F0E822EF2BFFEE3AFEED39FDEC38BA
:1026A000FC2275F008758200EF2FFFEE33FECD336C
:1026B000CDCC33CCC58233C5829BED9AEC99E582B3
:1026C00098400CF582EE9BFEED9AFDEC99FC0FD53F
:1026D000F0D6E4CEFBE4CDFAE4CCF9A88222B8002F
:1026E000C1B90059BA002DEC8BF084CFCECDFCE5FA
:1026F000F0CBF97818EF2FFFEE33FEED33FDEC331E
:10270000FCEB33FB10D703994004EB99FB0FD8E5A2
:10271000E4F9FA227818EF2FFFEE33FEED33FDECEB
:1027200033FCC933C910D7059BE99A4007EC9BFCE1
:10273000E99AF90FD8E0E4C9FAE4CCFB2275F0106D
:10274000EF2FFFEE33FEED33FDCC33CCC833C81092
:10275000D7079BEC9AE899400AED9BFDEC9AFCE8C0
:1027600099F80FD5F0DAE4CDFBE4CCFAE4C8F9220D
:10277000EF5BFFEE5AFEED59FDEC58FC22EB9FF5A6
:10278000F0EA9E42F0E99D42F0E89C45F022E860C4
:102790000FECC313FCED13FDEE13FEEF13FFD8F1A6
:1027A00022E8600FEFC333FFEE33FEED33FDEC3371
:1027B000FCD8F122E0FCA3E0FDA3E0FEA3E0FF22B1
:1027C000E0F8A3E0F9A3E0FAA3E0FB22ECF0A3ED2C
:1027D000F0A3EEF0A3EFF022A8828583F0D083D09F
:1027E00082120276120276120276120276E473E404
:1027F00093A3C583C5F0C583C8C582C8F0A3C583AC
:10280000C5F0C583C8C582C822E0FBA3E0FAA3E0F7
:10281000F922F8E0FBA3A3E0F925F0F0E5821582A8
:1028200070021583E0FA38F022EBF0A3EAF0A3E996
:10283000F022D083D082F8E4937012740193700D6B
:10284000A3A393F8740193F5828883E473740293CD
:102850006860EFA3A3A380DF75812F020855900A5B
:102860001951B0AE071FEE6012900A1C7103117669
:10287000FE900A197103EE11BC80E822E475F001A4
:102880008090900A54EEF0A3EFF090004FE06401C6
:102890006002619BC3900A54E09408500BE4FF91DE
:1028A0004F900A54918380ECE4F50DFB71C4AF0C9A
:1028B000121010E50DC39408504771C2E50D7F005A
:1028C00071BCEF29F9EA3EFA900A1C51B07B017AFB
:1028D0000979007FFF51E5E50DFEE424FFFFE43EAA
:1028E00071BC8F828E83118F9009FFF07B017A0972
:1028F0007900900A3DE50DF0AD0C121037050D8002
:10290000B2900050513BE42FFFEE340891949000B8
:102910005002167F900054E0FEA3E0FF71BD900AC4
:1029200054E0FDA3E0900A05CD120AA8900054EEF1
:10293000F0A3EFF022FE90200141907B007A007915
:102940001091D175FF031176F5D375FF0390000147
:1029500071EF90000271EF90000371EF75D4017573
:10296000FF03E5D55402FF22118FF5D375FF032233
:10297000900A33E0FEA3E0FF912D914F900A35516C
:102980003BEF24019191900A355153900A58914997
:10299000900A58E07002A3E0700BFF7E0871099165
:1029A000DFF01215FD2291B3CD24FFCD34FFFCC31F
:1029B000ED9FFFEC9E541FFE74082F91E8FF2290BC
:1029C0000A1374FFF5F001F091B3541FFC74082D45
:1029D000F58274203CF583EFF0902006E0B42019D6
:1029E000A3E0B40014902005E02401FF902004E04F
:1029F0003400541FF0A3EFF022902006E475F0019C
:102A000001F09000CE513BEF241BFFE43EFEE43D7D
:102A1000FDE43CFC2291C7EF24019191120C8674D5
:102A200004F0D1E3918991CC91F1F022902006E05D
:102A3000FCA3E0FD902005E02DFD902004E03C2269
:102A40009000CE413B900087415375FF0375D4023F
:102A500022900A17E0FF8101900A587408F0A3E45D
:102A600022F58274203EF583E0229000817408F004
:102A7000A3E42200000000000000000000000000AD
:102A800000AEFFEE54CFFEEFC454F024804EF5FFAD
:102A900022D119EF541FFFF1E0A37401F01215C009
:102AA000900A10E0FCA3E0FDAE047805CEC313CE7F
:102AB00013D8F9FF900A13EEF0A3EFF0ED541FA323
:102AC000F0A3E4F0900A33F0A3F0C3900A11E0946D
:102AD00020900A10E09400407C9146900A15E0FE98
:102AE000A3E0FF900A33EE8FF011F0900A13E0702C
:102AF00004A3E06406700AD119900A13E48FF01160
:102B0000F0D119900A33E48FF011F0120DB2EF609A
:102B100004F1DE8005E4900A12F0900A33120FD21D
:102B2000701D912D900A17EFF0910191D891D890D6
:102B30000A13E07002A3E0604791D8914680F071DB
:102B4000F771F771F7900A13E07002A3E06031713A
:102B5000F7914680F0900A109183800A900A10E065
:102B60007002A3E0600BD1199101900A1091498085
:102B7000EB120DB2EF6004F1DE8005E4900A12F072
:102B8000900A12E06002A12712166E7109900A35B0
:102B9000413B900081E0B4082DA3E0B40028120D61
:102BA000A57B017A0179009000FD7408F0A3E4F0A0
:102BB000D1E3120DA5E42FFFEE3408919491CCE4FB
:102BC000900081F0A3F0900083120E899000835151
:102BD00053900081E475F0013106FE740025F0F594
:102BE0008274013EF583E0FF229000ED5153900086
:102BF000F151B0110FF134EF6004111080F7120F92
:102C00007C60099000ED513B7810D1D89000EDD157
:102C1000D49000ED513BE480279000F4120FD94589
:102C2000F060219000F15190EA494B60119000F161
:102C300051901176FFD1DB9000F2918380DBE4FFAD
:102C4000D1DB80D5F1CD9000D77401F022513B78D3
:102C5000085115E4E5C820E2FB8FEB229000F65105
:102C6000539000FA51B0110FF134EF60041110804D
:102C7000F7F1EE120F9560099000F6513B7810D1F4
:102C8000D89000F6D1D49000F6F1E99000FD120F33
:102C9000D945F06011F1889000FA5190EF11BC9085
:102CA00000FB918380E5120EF9E4FFE1D27F01F190
:102CB000D23002161212D2F188900A5DEFF0120E95
:102CC000F9900A5DE020E002C202300219F177902B
:102CD00000D4EF1212DA600BA3E0F46006EF30E7E5
:102CE00002C202120EF9E4FFF1D2A202E433FF2283
:102CF000F1F77FD7D1DB7FFFD1DBF18C9000D3EFF1
:102D0000F07FFFD1DBE5C820E2FBAFEB22900A3E6B
:102D10005153110FF134EF6004111080F7F1EE12EE
:102D20000F956009900A3E513B7810D1D8900A3E29
:102D3000D1D4900A3EF1E9F188900A42F1CB900A91
:102D400042E0FF22EFF0120EF9E4FFEFB40104437A
:102D5000FE202253FEDF22D119900A10E4F0A3EFE7
:102D6000F022513BE4C1DB7F01F1D2F1F77F032276
:102D70009000D8E051B90819040821140826150854
:102D80002B17083B30084034084536084A37000006
:102D90000833531AEF851A80802F531BEF80085396
:102DA0001BDF8003531B7F851B90801D531CDF8519
:102DB0001CA08015531DFE800D531DEF8008531D70
:102DC000BF8003531D7F851DB07F0CDFFE2275FF82
:102DD00003759E029017FAE493900A51F075FF0272
:102DE000E5E654036002419F7510DE7511AD751262
:102DF000BE7513EFC2AF75FF0275E404F5E4751AF2
:102E0000FF751BFF751CFF751DFF7516FF7517FFFE
:102E10007518FF7519FF75FF0253E6BF91B61211C1
:102E200002B108EF64016002419690180893FE74A5
:102E30000193FF90007FEEF0A3EFF0F5828E83E424
:102E400093FE740193FFC3EE9480500280047E8051
:102E50007F008E148F159193FFF5828E83740293F9
:102E6000F51E740393F51F740493F508740593F528
:102E700009740693F50A740793F50BC201EF4E70BF
:102E80000221F4EFF4FFEEF44F700221F4E5144553
:102E90001EFEE515451FFFE5084EFEE5094FFFE55F
:102EA0000A4EFEE50B4F4E700221F4E51FF4FFE5DC
:102EB0001EF4FEE515F4FDE514F44EFEED4FFFE5BE
:102EC00009F4FDE508F44EFEEF4DFFE50BF4FDE5DA
:102ED0000AF44EFEEF4D4E700221F47F03120508F6
:102EE000E50B24FFFFE50A712B640370247F0212B7
:102EF0000508E50924FFFFE508712BB402137F01E3
:102F0000120508E51F24FFFFE51E712BB40102D254
:102F1000012001597F01120508713F900A05E51E45
:102F2000F0E51FB1AB71207F027134900A05E5080E
:102F3000F0E509711E7F037134900A05E50AF0E59A
:102F40000B711E7F01120508900A52E0FEA3E0FFFC
:102F50007BFF7A187900E42515900A06F0E5143411
:102F6000E8900A05711F4EC37001D3920130010928
:102F7000D159EF640160024196D2001204C77B016F
:102F80007A007964918C741BF01206E3900064E07F
:102F9000B4800B71D3EF700612161BEF6002C200F3
:102FA00030006830011A9193F5828E83740C93FE81
:102FB000740D93FF90007DE06E7003A3E06F604B93
:102FC00090005012025F000018001204C71204CCD7
:102FD000B1A5EF240112049191867404F01206E366
:102FE00090008712048C90008712167F1204F1F073
:102FF00090004F04F01205187440D3950C400C1249
:1030000003C2AF0C121010050C80EDE4FFB1D4E444
:10301000F510F511F512F513021800E0FD900A0500
:10302000E4F0A3EDF0900A00EEF0A3EFF0A312029B
:10303000B0900A05F1D945F06054900A021202904E
:10304000120076900A07F0900A031204837D80ED47
:1030500060DF7115EE7C0030E7027C01900A07E02A
:103060005D7B0060027B01EB6CFCEF25E0FFEE3343
:10307000900A00F0A3EFF0AF04EF600C900A00E0BC
:103080006410F0A3E06421F0EDC313FD80C1900A49
:1030900000E0FEA3E0FF22A3F051AC900A52EEF054
:1030A000A3EFF022347F8F82F583E4932212050888
:1030B000900A52E0FEA3E0FF7BFF7A807900229025
:1030C0000000EEF0A3EFF0A312023B900008120202
:1030D00053900006E0FFA3E090000CCF805F9000CB
:1030E0000CF1D2605EC3EF9440EE94004006A374EE
:1030F00040F0800590000EEFF0919BE0FF918CEF87
:10310000F090000812023B1206E390000EE0FFC3AD
:1031100090000DE09FF090000CE09400F09000080B
:1031200012024790000EE4FCFDFE12011C90000804
:1031300012025371CA919B51A2900000EEF0A3EFCE
:10314000F0809B900000E0FEA3E0FF221204C791F4
:1031500080900006E4F07405B1AB9175C006C0071D
:103160001204C7EF24071204919180900006E4F046
:10317000A37414F0D007D0069175C006C0071204DE
:1031800089918091A540067EFF7FFF8006900065B3
:1031900012023B900006EEF0A3EFF0D007D00691AC
:1031A0007591A540301204C7EF241AFFE43EFEEDEE
:1031B0003401FDE43CFC918090006512023BEF2459
:1031C00001FFE43E900006F0A3EFF0900A56E0FE07
:1031D000A3E0FF9175900069E0FEA3E0FF900A561E
:1031E000E06E7003A3E06F7F0060027FFF227146F4
:1031F000900A56EEF0A3EFF0229000020202537BF9
:10320000017A0079839000FDE4F0A32290007FE032
:10321000FEA3E0227B017A00790F90000E22E47F6A
:10322000FF7EFFFDFC900065120247D3020204E41A
:10323000900A5EF0900A5EE0FFD3946F501EEF2478
:1032400010FFB1E6900A5EE0FEE42EF582E4344F12
:10325000F583EFF0900A5EE004F080D87B017A4FAE
:103260007900900A05E4F0A37470F07F0F7E1D5181
:10327000ACEF4E7F0070027F01901218EFF024FF38
:1032800022E49000D2F07B017A0079BD12134290C3
:1032900000BFE0FF7411D39F505DE4FFFEFDFC7B97
:1032A000017A0A794F9000FDF0A37402F01206E350
:1032B000900A4FE0FEA3E0FFE4FCFDB19F1204C7BB
:1032C000EF2402120491B19F1215619000CE1202F8
:1032D000471201F7900A4DEEF0A3EFF09000CE12E6
:1032E0000247900A4D12154FFEE4FCFD12011CB17D
:1032F0009F9000D27401F09000D2E0FB6017E4FFD1
:10330000FE7D02FC9000BFE024EFF9F81202289045
:1033100000B7120253AF03229000CE020253900076
:103320008702023BA3F07F0F7E1D22E4FFFEFDFC1F
:1033300090008391AF7F0040027F01227F0F7E1DAE
:1033400051A4900A0C120290900A0F41A2AB07E41C
:10335000FF9000D2E06007D186D19DE433FF227553
:10336000FF03E4F597F1E7E59720E1FB75FF03AF75
:103370009922900A48EFF0A3EDF0A31202B0900A50
:1033800049E06046901218E06012900A48E024106C
:10339000FFB1E6900A4A120290EF8017900A48E0C7
:1033A0006401900A4A70071202907480800512022C
:1033B0009074FF1200BC900A4B120483900A49E0FB
:1033C00014F0900A48E004F080B4227D01B1F97B4A
:1033D0000122E49000FFF09000D2E0601C9000B762
:1033E00012023BE4FBFA7902F8D3120204500AD12C
:1033F000861207949000FFEFF09000FFE0FF22900C
:1034000000CE12023BEF24FFFFEE34FFFEED34FF4F
:10341000FDEC34FFFC22900A47EBF0900A431202C5
:1034200053900A4312023B120794900A47E06F60E0
:103430003C12000F120734EF600512001080F5F106
:103440007C600B900A4312023B78101206D8900A57
:10345000431206D4900A431207E9900A47E0FF128C
:1034600006DB1207CD9000D77401F0D322C32212DD
:1034700006DBF1CCEF70FB9000DAE0F4600A900A12
:103480005A7406F0F17470FC9000D8E01202B90F83
:1034900032040F3A140F3F150F44170F54300F59D1
:1034A000340F5E360F633700000F4C431A10851A35
:1034B00080802F431B108008431B208003431B8008
:1034C000851B90801D431C20851CA08015431D0179
:1034D000800D431D108008431D408003431D8085DF
:1034E0001DB0900A5A740CF0F17470FC22900A5AC4
:1034F000E014F0E0227F011207D2D2021207F77F18
:10350000061206DBD1F91207F79000D6E0FF12068B
:10351000DB9000D9E064022212000F120734EF6042
:103520000512001080F57F011207D2D2021207F7B0
:103530007F06D1F61207F77F011206DB7F03D1F673
:10354000E4FF0207D2E5C85404FF22E0FEA3E0FF37
:103550004E2274FFF5F0020106AB05E4FCFDC19DAF
:1035600075FF038F9875FF032275FF03759701F1AF
:10357000E7E59720E1FB75FF03AF99221204D175AF
:10358000FF03E5D5F45402FF2275FF03EF543F44D7
:1035900080F5D1E5D520E20AE5D520E005E5D53076
:1035A000E1F1E5D55403FF75FF0375D5050204D19C
:1035B00075FF03ACD5EC20E13C75FF03ED543FF5FE
:1035C000D175FF03E9F5D375FF03EA540FFF900AA5
:1035D0003DE0C4547044804FF5D2E5D520E205E5C6
:1035E000D530E0F6E5D55401FC75FF0343D40275F0
:1035F000FF0375D505AF04227F011207D2900A5B45
:103600007401F0900A5BE0603251D2120788900A90
:103610005BEFF0120EF91207779000D4EFF0120E64
:10362000F9900A5BE0540151DA60D8A3E0F460D36A
:10363000EF30E7CFE4900A5BF080C81207F77F9F76
:103640001206DB1207889000D51207869000DA1266
:1036500007869000DB1207CB9000D3E0F4601BA339
:10366000E0F460169000DAE0FD541F240FA3F0EDA3
:10367000C413540744809000DAF0227B017A007969
:10368000D87F03120E527A0079E17F08120E527A27
:103690000079DE7D027F09120DF97B017A0079DC69
:1036A0007D027F0B120DF99000DC120FD26006BE76
:1036B000FF1BBFFF189000E1E024FD6003047004CD
:1036C00051C880099000DCE4F0A37440F09000E160
:1036D000E024FD60030470089000D97403F08006B4
:1036E0009000D97402F09000D8E01202B911900451
:1036F000119B1411A31511AB1711C13011C934114D
:10370000D13611D937000011B675FF015316EF8578
:1037100016FD804775FF015317EF800E75FF0153AB
:1037200017DF800675FF0153177F8517C9802C7539
:10373000FF015318DF8518CA802175FF015319FE58
:10374000801675FF015319EF800E75FF015319BFE5
:10375000800675FF0153197F8519CB120EF97F1171
:1037600051BAE4FF7109117F9000D67402F0900005
:10377000DAE0247F600904701551C0740A80065194
:10378000E251C07458F09000D97403F051C8900011
:10379000DBE0F4600241B79000DEE0FEA3E0FF64EE
:1037A000104E70069000DB740EF0EF64204E700631
:1037B0009000DB740FF0EF64404E70069000DB74F5
:1037C00010F0EF64804E70069000DB7411F0E4B5E9
:1037D000070AEEB401069000DB7412F0E4B5070AA4
:1037E000EEB402069000DB7413F0E4B5070AEEB401
:1037F00004069000DB7414F0E4B5070AEEB4080682
:103800009000DB7415F0E4B5070AEEB410069000E2
:10381000DB7416F0E4B5070AEEB420069000DB7402
:1038200017F0E4B5070AEEB440069000DB7418F018
:10383000020F9FEF4420F5FE227F1051BA9000D670
:10384000229000DC7401F0A3E4F0221207F77F0558
:103850000206DBF09000D3E0FFF4229000D3E020DA
:10386000E01F7F011207D21207F77F3D1206DB7FB0
:103870002A1206DB7F801206DB7FA61206DB120708
:10388000CD22900A5CEFF09000E1E06402702B7FA3
:10389000011207D21207F7900A5CE07FAB60027F4B
:1038A000B91206DB120EF9900A5CE09000E0F070AD
:1038B000047F1EDFFEE4FF1207D2229000D5E01243
:1038C00000BC9000DAE09000011200CE9000DBE036
:1038D0009000020200CEE4FCFD020794900A2F71D2
:1038E0007FC007900A2F120290900A32E0FF120C5C
:1038F0008CEFF0D0070206E31202B0E4FCFD229048
:103900000A28717FC007900A28120290900A2BB1F2
:1039100022D00790008F1202539000931202B0E45D
:103920009000B6F0D3900097E0941E900096E0943B
:10393000004001227B017A007998900096E0FFA375
:10394000E09000FDCFF0A3EFF090008F12023B1249
:1039500006E3900093120290E94A600F9000B6E0EF
:10396000F58275830012008FFF80027F009000B601
:10397000E02498F582E43400F583E06F6002C3220E
:103980009000B6E004FFF0D3900097E09F9000967F
:10399000E0940050BD229000E21202539000E61223
:1039A00002B0B1139000E9B1229000E212023B7123
:1039B0009A500281CCB1619000E21202471201F7E5
:1039C0009000EBEEF0A3EFF04E60319000EBB14FC2
:1039D000FE9000EBF0A3EFF09000E9E0FCA3E0FD27
:1039E000D39FEC9E5006A3ECF0A3EDF091CEE94AF4
:1039F0006004B11980427E007F00803C9000E91293
:103A00000FD2603F9000DCE0FCA3E0FDD3EF9DEE21
:103A10009C400A9000EBECF0A3EDF0800D9000E9E3
:103A2000E0FFA3E0A3CFF0A3EFF091CEE94A60045A
:103A3000B11980047E007F009000E7EE8FF0120045
:103A4000F080B9D322C3229000E61202909000EBDE
:103A5000E0FFA3E09000F4CFF0A3EFF09000E212BB
:103A6000023B1206709000EBE0FEA3E0FFC3900063
:103A7000EAE09FF09000E9E09EF09000E212024739
:103A8000E4FCFD12011C9000E21202539000E602D9
:103A900002909000EBE0FEA3E0FF22E0FFA3E090A5
:103AA0000096CFF0A3EFF022900A21717FC007901B
:103AB0000A21120290900A24E0FFA3E09000E9CFCF
:103AC000F0A3EFF0D007811DE0FEA3E0FFC390005C
:103AD000DDE09FFF9000DCE09E229000DDE024FF0F
:103AE000FF9000DCE034FFFEE4FCFD2212000F1228
:103AF0000734EF600512001080F5229000D7E0FF38
:103B000022E49000D7F022901218E024FF229012B5
:103B100018E060057F10020DE67FFF22E49020048C
:103B2000F0A3F0A3F0A3F07B017A207908902001A4
:103B30001202B0E4902000F0221204DFF0900A3567
:103B400012025F0000000080D3902004E0FEA3E09A
:103B5000FF24081204E8FDEF2401FFE43E541F9007
:103B60002004F0A3EFF0A3120449AF052290200631
:103B7000E0FEA3E0FF22902000E0045403F07F0069
:103B800033333354F8FEEF2408F974203EFA7B01F6
:103B9000A30202B0900054741DF0A3740FF012043D
:103BA0009CE490004FF012051890006BE0FEA3E03B
:103BB000FF900054E06E7003A3E06F7F0060027F0F
:103BC000FF22EFB40109D2AD75FF0143AE4022C21E
:103BD000AD75FF0153AEBF22E5C85402FF75C802A0
:103BE00022E5C85401FF22900A58E0FEA3E0FFC37B
:103BF000E49FFF74089EFE22120253E4FB7A08F948
:103C0000F890005012023B1201658F0C2200000058
:103C100000000000000000000000000000000000A4
:103C20000000000000000000000000000000000094
:103C30000000000000000000000000000000000084
:103C40000000000000000000000000000000000074
:103C50000000000000000000000000000000000064
:103C60000000000000000000000000000000000054
:103C70000000000000000000000000000000000044
:103C80000000000000000000000000000000000034
:103C90000000000000000000000000000000000024
:103CA0000000000000000000000000000000000014
:103CB0000000000000000000000000000000000004
:103CC00000000000000000000000000000000000F4
:103CD00000000000000000000000000000000000E4
:103CE00000000000000000000000000000000000D4
:103CF00000000000000000000000000000000000C4
:103D000000000000000000000000000000000000B3
:103D100000000000000000000000000000000000A3
:103D20000000000000000000000000000000000093
:103D30000000000000000000000000000000000083
:103D40000000000000000000000000000000000073
:103D50000000000000000000000000000000000063
:103D60000000000000000000000000000000000053
:103D7000000000043CFFFCFFFF3F241E16110E0B49
:103D800009070504030201F0C8A791776760463868
:103D900035323024222014000101020203030404FE
:103DA0000505060607074C6966656C696E6500497E
:103DB0006E76616C69642067726F7570005E26852F
:103DC0005972865A73257A8000001AD41AD91ADEDD
:103DD0001AE35A2D5761766520342E3333001B10B9
:103DE0001B151B1A1B1F1B24822D1C1613111010D0
:103DF000198A19941999199E1AE81AED1AF21B01D9
:103E00001B061B331B381A111A1B1B0BE4F97D0C04
:103E1000AC0109EC903DD293FC0FEFAA0670010EA5
:103E200014F5828A83ECF0DDE77F03228F828E8394
:103E3000E4F0A37404D13F7421D13FA3E4F022F055
:103E40008F828E83A3A322124AFA121A481219B241
:103E5000121A8EF1EE60717E007F09F12DBF540DB4
:103E60007E007F0AF12DBFA5047F0180027F0090B4
:103E7000066CEFF07401F060287E007F00F12DEFFA
:103E8000FD7412B5051374002401FFE43400FEF143
:103E90002D74686F7001E460081250D790066CEFC3
:103EA000F090066CE070217E007F04C006C3746849
:103EB0009404FE741294001256AA124D98D0061261
:103EC00056F4E4FFFE125412F1EE7F0060027F010F
:103ED0001219FD121A0212198F1275E37A12791E45
:103EE000121962124815E0FE4FFDA3E0FC4DFDA340
:103EF000E0FB4D600BEE5FFFEC5FFFEB5FF47003E8
:103F000012458A90121CE0FF5403241EF582E4340B
:103F100012F583E06F9003BAF0021AB1E075F00277
:103F2000A42485F9740F35F07B02FEAF01E4FCFD9B
:103F3000902BE012207AF1F5124A38EF6005124812
:103F40003580F5F1D6600A902BE012201D7810F133
:103F500072902BE0F16D902BE012201DE41249AD20
:103F6000902BE4EFF0F1C5902BE4E0FF2212201D2E
:103F70007808121FDDE4E5C820E2FB8FEB22902BCE
:103F8000E512207AF1E8F130902BE9E06F6032F130
:103F9000F5124A38EF600512483580F51248B390A3
:103FA0002856E0FFF1DF6006F1E87810F172902BFF
:103FB000E5F16DF1E8E4F176902BE9E0FFF1C3D390
:103FC00022C322F1761249BDE4FFEFB4010443FE9F
:103FD000202253FEDF227F01F1CA1248C37F03F182
:103FE00076902859E0640222902BE502201D900370
:103FF000C0E064012275FF02E5E430E10675E406E5
:1040000075E4032275FF0275E40475E40175E402AA
:104010002275FF0275E404E4F5E422900654EFF003
:10402000900656EBF0900655EDF05402901229F0F0
:104030001276D86006F1EF5002C322900654E0B425
:10404000040BA3118E9006547403F080259006543F
:10405000E064057018901223E090065530E50611D3
:104060008E7F1F80041196E4FFF1DE8005900655D7
:104070001196900654E09003BFF0900656E090121F
:1040800028F0F1619003C6EEF0A3EFF0D322E0FB3D
:104090007D017F018006E0FB7D01E4FFEB60087598
:1040A000FF0153CDFD800675FF0143CD02ED600594
:1040B00053FBDF800343FB20EF600775FF0243E102
:1040C000402275FF0253E1BF22901232E0FD7F01D2
:1040D00012715E901223E090122930E506118E7F56
:1040E0001F80041196E4FFF1DE7F0143FB1075FF92
:1040F0000243E640EF600D75FF02E5E120E7FB4378
:10410000FB0D800343FB0E80FE75FF0275E404E4A3
:10411000F5E4C22A75FF02901215E0603AE5E65414
:104120000364017032121A2FD1B1401F901228E09F
:10413000600DE014F07008122541E4901215F09023
:104140001215E0700221DE11C921DE122541D22AAA
:10415000E4901215F021DE12254112718B9003C0FC
:10416000EFF0901200E0B47A14901214E0B49C0DB9
:104170009003C0E0FF64056004EFB4032EE49003F5
:10418000C5F09003C5E0FFC394405013E42FF582BF
:10419000E43412F583E4F09003C5E004F080E3908A
:1041A0001200747AF0901214749CF0121A617B0160
:1041B0007A1279107D017F01121A5C7B017A1279E3
:1041C000117D017F21121A5C7B017A1279127D0127
:1041D0007F22121A5C7A1279227F0212765C901288
:1041E00022E0B401057F0112714D121A3412718B55
:1041F000121A2A9003C0EFF01219B7121A25900371
:10420000C0E0FFB40602800C302A047F02800590D3
:1042100003C0E0FF121ABBEF24FFB3925875FF02F0
:1042200053E6BF123FEE6005E4901215F012505EA7
:10423000121A39123E47901215E0700F20580C12D6
:104240001AC07B017A2279A21219DF901223E03082
:10425000E0028003302A047F0191FFD2AF20580290
:1042600041E2121A8971CF121AC5121A9840F390BE
:1042700003BFE06041121A52EF70051276494036D2
:10428000E51470FCE51520E502B11A12195DEF7016
:10429000FA12713B500512712750057F01124DD063
:1042A0009003BFE0B40204E4FF80099003BFE0B4D0
:1042B00003047F0111EB121A4DE51530E1A41276CB
:1042C000014002E4F0E51520E50471B19176127623
:1042D0002DC0E071BF9003C2E0FDD0E0FF1219AD28
:1042E0008080124FFFF1FB5002B18A9003BFE06063
:1042F0005D902238E07057121A52EF70051276491D
:10430000404CE51470FCE51520E509901223E020EF
:10431000E002B11A12195DEF70FA12713B500512EA
:10432000712750057F01124DD09003BFE0B4020306
:10433000E480189003BFE0B403047F01800E900373
:10434000BFE0B405099012157401F0FF11EB121AC9
:104350008971CF121AA7121ACA203205121A4D807B
:1043600021F1619003B9E0FEEFC39E4005EF9EFF8F
:1043700080089003B9E0F4042FFF7406D39F500225
:10438000C232E51530E1221276014002E4F0E51573
:1043900020E50471B1917612762DC0E071BF9003D3
:1043A000C2E0FDD0E0FF1219AD121A1612504C41B6
:1043B000E29003C1E0FD75F0AA9003C81220B7EDAA
:1043C00075F002A424BBF9740335F0FA7B0122E4F2
:1043D000902D17F0900000E06069902D17E0FF0429
:1043E000F0EFC39405505C900000E014F0E4F56138
:1043F000E561C3940C50DDE5619144E0FEA3E04E1D
:10440000603DE56191441267AD70349152E0FF6008
:1044100008F460059152E014F09152E06011E561FA
:1044200012683E916FFFE5619144EEF0A3EFF091C9
:10443000624E60089162AA06F912221612483505EA
:104440006180AD2275F007A424A9F582E43424F537
:104450008322E56175F007A424AFF582E43424F5E6
:104460008322E56175F007A424ADF582E43424F5D8
:1044700083E0FEA3E022AF82AE837D019006491265
:1044800075F8E5147078F1F2D1FB5004C254B142D2
:10449000900649E0FEA3E08E11F512A31220C3900E
:1044A00006281220E3AE11AF127DAA127283E4F542
:1044B000FF75D901F510E5155421602BE51530E5A0
:1044C00004E4FFF17DE490064EF090064EE004F027
:1044D000125E34EF600990064EE0C3941040EB7F0B
:1044E00002121AB65315DE900624E07F00B40302D0
:1044F0007F01F1BFD254B142D2EBA22992ED22EF5B
:10450000600C71B1AF82AE83E4FD917C8009121A18
:1045100057B11AE433FF227F0122E5147022F1F231
:10452000D1FB5004C254B142F13DF1D2E5D120E0BB
:10453000FB4315205315FEE4F510A22992EDD3227A
:10454000C322902D1CE5F4F0E0547FF5F47F827EC9
:1045500000F1031261EC5005E5FC20E6F63054084A
:10456000902D1CE04480F5F47FE87E03F103126196
:10457000EC5005E5FC20E6F675FF01E5D520E702E5
:10458000C322E5F4D330E601C322E4FF91FFEF60DC
:104590003CF136B1CE90121EE0C394C040F37B01D3
:1045A0007A127920B1CE124815E05FFFA3E05FFFD9
:1045B000A3E05FF460E8901223E030E0047F019113
:1045C000FFE490121CF0F136E0FD1219672290060C
:1045D0005A1220E3C249E4FF91FFBF010B90065A33
:1045E0001220C3125CBE92497F0191FFA249229022
:1045F0000666EFF0C2551262B3D234900666E090C0
:104600002C8AF0D235A3E4F0A3740DF0126204E416
:10461000900667F0D1FB5068900667E07062E5F79E
:1046200054C060F0D196D1A964557040D1A99012C0
:104630001CE06F7032D1A9644A6018E0FF640A6020
:1046400012EF6455600D90121CE0FF900667E0FECB
:104650006F7005900667800A900625E06E900667E9
:1046600070197402F080AD900667800F900667E0C5
:10467000B454057433F0809C9006677401F0809404
:10468000900667E0B40206C254B14280001261F79E
:10469000900667E0FF22E5F720E008E5F754C070D8
:1046A000F5FF2243F701AFF922D196900667EFF0AC
:1046B00022126F1F7F02121AB67F01B1EF90066EB1
:1046C000EFF0BF0202801390066EE0B43311E4F005
:1046D0007F01B1EFBF020D90066E7401F08005E41A
:1046E00090066EF090066EE0700AD1FB5004C25442
:1046F000B142F13D90066EE024FF22E5F4C330E7BD
:1047000001D322F107806F902C3F1276BA7A2C7970
:10471000411265CA5014902C41E0FEA3E0FF902C9A
:1047200040E09F902C3FE09E400B902C3FE0FEA38A
:10473000E0FF125E17227B017A12791E22F1447F7C
:1047400008021AB6E5FA30E1FB75FC8075FF0153EB
:10475000D5EFE4F5FC75FC40125F4FE5FC20E6FB6D
:1047600022A2AD9246C2AD1276E7A24692AD227F5A
:10477000C87E00125E1775FF034391802275FF010A
:10478000E5D530E602C322E4F5FF439A80EF3333E8
:104790003354F8F5F4E4F5FF539A7FD322F1CEE5D4
:1047A000D120E0FBE4F5FF75D901900624E07F00FD
:1047B000B403027F01F1BFD254B142E4F51022F1FB
:1047C0007D43FA04E4F5FF53D1FD43D10122C254E5
:1047D000B142E4F5FFE5D154FE4402F5D12275FF64
:1047E000028FE322C2AFEFF45215D2AF2280EFA2C4
:1047F0002A22C2EBA2ED9229C2ED2290121CE07097
:1048000012124815E04FFFA3E04FFFA3E04F7003E3
:10481000D38001C32290121EE0FFA3229003BAE0CE
:1048200064AA2411FFF022AE07111CEE04FEEF8EE5
:10483000F084AFF022E51530E20FE51520E50AE53A
:104840001530E0057F011244FF22902A2512207ABC
:10485000902A291220E3123FF55138EF60041135F8
:1048600080F711B3902856E0FF123FDF600B902ACB
:104870002512201D7810123F72902A25123F6D904C
:104880002A2512201DE4801F902A2CF1E3601D9040
:104890002A291220C3EA494B600B902A2912762656
:1048A000121C348001E4FF123F7680DC31BDE4FF4E
:1048B000023FCA7F01123FCAD24C11C37F06123F8A
:1048C0007631BD902858E01221F048E60448EE14F5
:1048D00048F31548F817490830490D34491236494C
:1048E0001737000049005358EF855880802F5359DF
:1048F000EF80085359DF800353597F855990801DFD
:10490000535ADF855AA08015535BFE800D535BEF31
:104910008008535BBF8003535B7F855BB07F0CDFF8
:10492000FE227F01123FCA902D197401F0902D19BB
:10493000E0603711C37F0531AD902D19EFF031BD27
:1049400031A9902853EFF031B0902854EFF031BDE9
:10495000902D19E05401F1D360D3A3E0F460CEEFC1
:1049600030E7CAE4902D19F080C311C37F9F31ADA9
:10497000902855EFF031B090285AEFF031B09028E0
:104980005BEFF0123FC5902853E0F4601BA3E0F406
:10499000601690285AE0FD541F240FA3F0EDC413B5
:1049A0005407448090285AF02211C37FD7123F76D3
:1049B0007FFF123F76E5C820E2FBAFEB22F1EDEF7F
:1049C00070FB90285AE0F4600A902D187406F0B13C
:1049D000A070FC902858E01221F049F60449FE141A
:1049E0004A03154A08174A18304A1D344A22364AE3
:1049F000273700004A10435810855880802F4359AC
:104A00001080084359208003435980855990801DA8
:104A1000435A20855AA08015435B01800D435B10EB
:104A20008008435B408003435B80855BB0902D181A
:104A3000740CF0B1A070FC227F01123FCA304C16FA
:104A400011C37F0531AD902D1BEFF031BD902D1BB3
:104A5000E020E002C24C304C1E31A9902853EFF008
:104A600031B0902854EFF1D3600BA3E0F46006EF6F
:104A700030E702C24C31BDE4FF123FCAA24CE4331E
:104A8000FF22123FF55138EF6004113580F711B362
:104A90007F01123F767F03123F7631BDE4FF023F74
:104AA000CA902A2E12207A902A321220E3123FF561
:104AB0005138EF6004113580F7123FD6600B902A11
:104AC0002E12201D7810123F72902A2E123F6D90E8
:104AD0002A2E12201DE4123F76902A35F1E360134E
:104AE00031B0902A321220C3EF121CCF902A33B17A
:104AF0009180E631BDE4FF023FCA7A2879587F03EE
:104B000012765C7B017A2879617D017F08121A5C3C
:104B10007B017A28795E7D027F09121A5C7B017A1B
:104B200028795C7D027F0B121A5C90285CF115607D
:104B300006BEFF1BBFFF18902861E024FD60030440
:104B40007004B1A8800990285CE4F0A37440F09050
:104B50002861E024FD60030470089028597403F074
:104B600080069028597402F0902858E01221F04BEA
:104B70008B044B96144B9E154BA6174BBC304BC465
:104B8000344BCC364BD43700004BB175FF01535436
:104B9000EF8554FD804775FF015355EF800E75FF7B
:104BA000015355DF800675FF0153557F8555C98038
:104BB0002C75FF015356DF8556CA802175FF0153BE
:104BC00057FE801675FF015357EF800E75FF015396
:104BD00057BF800675FF0153577F8557CB31BD7F87
:104BE0001191B3E4FFB1D031229028567402F090B5
:104BF000285AE0247F600904701591B9740A800670
:104C0000B1B291B97458F09028597403F0B1A890DA
:104C1000285BE0F4600281B190285EE0FEA3E0FF33
:104C200064104E700690285B740EF0EF64204E7096
:104C30000690285B740FF0EF64404E700690285B7E
:104C40007410F0EF64804E700690285B7411F0E4ED
:104C5000B5070AEEB4010690285B7412F0E4B507BC
:104C60000AEEB4020690285B7413F0E4B5070AEE6E
:104C7000B4040690285B7414F0E4B5070AEEB40897
:104C80000690285B7415F0E4B5070AEEB4100690A0
:104C9000285B7416F0E4B5070AEEB4200690285B92
:104CA0007417F0E4B5070AEEB4400690285B741858
:104CB000F04182EF4420F5FE227F1091B3902856F8
:104CC00022F9E43AFEAF017B017A277918902B7B19
:104CD0007402F0902B781256E5C007902B781220C2
:104CE000C3902B7BE0FF1275F1EFF0D00741A1904C
:104CF00029A8EFF07B027A007902A31220E3806CEE
:104D00009029AFF115606F9029A91220C3E92FF9FE
:104D1000EA3EFAE924FB9029AC1275DBB1787A29D6
:104D200079B191CD9029B1E0FEA3E0FF9029AFE0E9
:104D3000B50624A3E0B5071F9029AC1220C3E924CF
:104D400002F9E43AFEAF01123F2D9029A8E0B50721
:104D5000089029AC0220C3801D9029AFE0FEA3E09B
:104D6000FF9029AAF1319029A91220C3B1787A299C
:104D700079AF91CD808A8021AE02AF017B01227490
:104D80000793FF91EF9027011220E3902701022063
:104D9000C3E475F001021DA0F07B007A00790022C7
:104DA000902D18E014F0E02290285C7401F0A3E448
:104DB000F022902853E020E016D1027F3D123F768A
:104DC0007F2A123F767F80123F767FA6123FC32252
:104DD000902D1AEFF0902861E064027024D10290C7
:104DE0002D1AE07FAB60027FB9123F7631BD902D66
:104DF0001AE0902860F070047F1EDFFEE4FF123F8F
:104E0000CA227F01123FCA01C39029B312207A90AF
:104E100029B71220E39029B71220C39029BA12575C
:104E2000B99029B312201D12572F5002C1C79028E4
:104E30005DE090285C1276C29029B3122039121FCF
:104E40009B9029BCEEF0A3EFF04E60389029BC1285
:104E5000562390285DE09FFF90285CE09EFE9029FD
:104E6000BCF0A3EFF09029BAE0FCA3E0FDD39FECE7
:104E70009E5002F1F8D1C94A6004F11C80407E00C6
:104E80007F00803A9029BAF115603A90285CE0FCE6
:104E9000A3E0FDD3EF9DEE9C400A9029BCECF0A36B
:104EA000EDF0800D9029BAE0FFA3E0A3CFF0A3EFCF
:104EB000F0D1C94A6004F11C80047E007F00902973
:104EC000B8F13180BFD322C3229029B71220C390FA
:104ED00029BCE0FFA3E0902A2CCFF0A3EFF09029AB
:104EE000B312201D114A9029BCE0FEA3E0FFC3903D
:104EF00029BBE09FF09029BAE09EF09029B31220E0
:104F000039E4FCFD121E639029B312207A9029B770
:104F10001220C3E922E0FEA3E0FF4E229029BCE06C
:104F2000FEA3E0FF22902422EE8FF0121DA0902419
:104F300024EE8FF0021DA0902422F1F312769ED36E
:104F4000902423E09D902422E09C403412766D5002
:104F500002E1D2F1DB40047F808006902426A3E0AA
:104F6000FF902428EFF0902422E0FEA3E0FF1255EA
:104F7000F81256897E001276CDE09EF0F12580CCA5
:104F8000902426E0FEA3E0FFF12512766D4043F168
:104F9000DB40047F808006902426A3E0FF90242835
:104FA000EFF0FD7C00C3902423E09DFF902422E0DD
:104FB0009CFEF0A3EFF0C3902425E09DF090242404
:104FC000E09CF01255F81256891276CDE09400F06C
:104FD00080B822F0902853E0FFF422D3EF9480EEC3
:104FE00094002274FFF5F0121DB645F022E5C85476
:104FF00004FF22EEF0A3EFF0A3ECF0A3EDF02230DB
:10500000330C902238E07006FF1219BCC233302AEC
:10501000289024FDE0A3E0FF900645E0FEEFC39E4C
:10502000400AEF9ED394024010C22A22900645E027
:10503000F42FD394014002C22A229003C3E0FCA3C0
:10504000E04C70069003C3024087C3229003C31252
:105050004F156009CAEECAC9EFC91222162275FFA0
:1050600002D2ADD2BD75FF02758E7175600975FFF4
:1050700002E58E546F4480F58E22C0E0C0F0C083FC
:10508000C082C0D075D008C0FF75FF02E58E30E445
:105090002975FF02E58E54EF4410F58E900000E074
:1050A00004F0E56030E0020531E560700B756009E1
:1050B0009024FD124D928002156075FF02E5853047
:1050C000E40875FF024385100563D0FFD0D0D0827D
:1050D000D083D0F0D0E0327E7F7F9490270DEEF029
:1050E000A3EFF0F5828E83124D7FE94A4B700221C7
:1050F00095124D8B124D787A277910124CCD90274E
:1051000010E0FEA3E0FF124D8BC3E99FF9EA9E1267
:105110006B4290270A1220E3AE02124CC59027186A
:10512000E0FEA3E0D1EC6F7003E4936E7F006002B9
:105130007F0190270FEFB1C32402124CC190270FBB
:10514000E0FF902718E0FCA3E0FD907FC27401937C
:105150006D7003E4936C7E0060027E01B1BE240892
:10516000124CC1D17E943D902718E094067E0040F9
:10517000027E01B1BE240A124CC1D17E9421902737
:1051800018E094047E0040027E01EF4E90270FF05D
:1051900060037F0022B1B1B1DFF0A3EFF0AE02AF48
:1051A00001AC02AD01E02DFD902712E03CCD2402C0
:1051B000CD3400FC9112124D8BE94A4B70024192A2
:1051C0004185B1AAE0FDC39480EC947F500261C098
:1051D000B1B1B1DFB19B124D7FE94A4B606D124D09
:1051E0008B124D787A277910124CCD902710E0FE63
:1051F000A3E0902701D15DFAC3E99FF9EA9EFA7115
:10520000F29027071220C3C003C002C00171EAD385
:10521000D082D083D0E0D14B4038124D8BE92405A9
:10522000FEE43A902714F0A3CEF071EA902713E041
:1052300029FF902712E03A902716D1DE902714E03C
:10524000FEA3E0FFD142124F378007D139124D98AB
:1052500071F2D1C3402F71EAD193CF24FBCF34FF39
:10526000FEC006124D99D1A0F0D00671FB71EAD1B3
:10527000683ACF24FBCF34FF71DB124D787A27795F
:1052800012D11C71F890270D74FF75F0F6121DA055
:1052900021C290270D747FF0A37480F0B1AAE0FDC5
:1052A000C39494EC947F400261C0B1B11220ECB180
:1052B000A48F828E8374069324FEFE74059334FFBC
:1052C000902712F0A3CEF08D828C83740393FF7429
:1052D0000493902710CFF0A3EFF0902710124F15F2
:1052E00070026171B1AAE0F5828C8374079324FC8B
:1052F000601B146026240370347A00790071F07109
:10530000EAC3EF99FFEEB1D790271080187B017A9E
:1053100060790071F271EAB1CC800A7A60794071EB
:10532000F071EAB1CCF0A3EFF0D155B1A4D1737113
:10533000EAE96F7002EA6E601DD173902714EEF0F7
:10534000A3EFF071EAAC02AD01902716ECF0A3EDEB
:10535000F0D142124F37B16F740793640270197E17
:10536000007F097D54D1B67E007F0A7DA5D1B6802D
:1053700007D139124D9871F2D1C3403871EAD193F7
:10538000FEC006124D99D1A0F0D00671FB71EAD192
:10539000683A71DBE924FEF9EA34FFFAB1A4B16F8F
:1053A000B1ECF0A3EFF0124D787A277912D11C748A
:1053B00002F071FB90270DE475F00A121DA0419CCC
:1053C0009027127412F0A37468F07E007F007B01B6
:1053D0007A277912D11C71F87F0122FE902713E001
:1053E00029FD902712E03AFC91129027040220C375
:1053F0007B019027070220E37402F0902B01D1E596
:10540000C007902B011220C3902B04F10ED007028D
:105410004E09902954124FF3A37422F0A37485F01F
:10542000902958B172E4937002A16EE493FF541F67
:1054300090295AD12AEFC41354071221F05459006D
:10544000545B01545D02547903548F0454A40554F1
:10545000B60654C007000054208034804790295875
:10546000B172740193FF74029390295CCFF0A3EFA3
:10547000F090295BE024038043B17B740293FD74B8
:10548000039390295CCDF0A3EDF0EF2404802290EB
:105490002958B17274019390295CD1D790295BE0AF
:1054A00024028018B17B74029390295CD12AEF24E6
:1054B00003FFE43EA16490295BE02401D131A164A3
:1054C000902958F104740193FB7A0090295BE0FE67
:1054D000E42BFFEA3EB198740393FE902958A3E0B1
:1054E000F5828C8374049390295CD1FBD390295569
:1054F000E09F902954E09E5063902956D123902933
:105500005DE09F90295CE09E5052E490295EF0A3FC
:10551000F090295AD12390295FE09F90295EE09E68
:10552000503AE0FCA3E0FD90295DE02DFF90295C5E
:10553000E03CFE902959E02405FB902958E0340016
:105540008B82F583E5822DF582E5833CF583E49338
:10555000FD12197190295E124D9180B590295BE082
:105560002405D1319029588FF0121DA0812022905E
:10557000270DE0FEA3E0F5828E8322902958E0FCFF
:10558000A3E0FDF5828C83740193FB7A0090295B84
:10559000E0FEE42BFFEA3EFE90295AF0A3EFF08DE7
:1055A000828C83229027040220E390270DE0FCA345
:1055B0002290270DE0FEA3E0FFF5828E8322EF4EBE
:1055C00090270FF090270A1220C3E922C3902711D9
:1055D000E099FF902710E09ACF24FECF34FF2212EB
:1055E00020EC9027041220E38F828E83740593FFB2
:1055F000740693902712CF227B017A247929902474
:1056000028E0902B7BF0124CD3902424E0FEA3E002
:10561000FF7B017A247929902428E0FD902B04E473
:10562000F0A322E0FEA3E0FFC322FDE4F0A3EDF02F
:1056300022FF90295AE0340022902710E4F0A3744E
:105640000522902710E0FAA3E0FB22E99582EA9573
:1056500083221220C3E92402F9E43AFA22FF12203D
:10566000C3E92405F9E43A22902711E029FF9027A5
:1056700010E0229027071220C3AE02AF012290272C
:105680000FE0FFD3902719E022EDF071FB90242862
:10569000E0FF22902710E0FCA3E0FD29FFEC3A2276
:1056A000A3E0F8A3E0C39DFEE89C902B04F0A3CEFA
:1056B00022FEAF01E4FDAB05E4FCFD902BE9EBF02D
:1056C000023F7E902710E0FEA3E0FFD3902713E077
:1056D0009F902712E09E22FFE4F0A3EFF022F0FC5F
:1056E000A3EFF0FD221220E3E4FCFD22FF907FC037
:1056F0007401932271FB74FFFDFC22FDEDFFEEF0BF
:10570000A3EFF022E0FCA3E0FDF5828C8322E0FF12
:10571000A3E09029BACFF0A3EFF022902B08D1E5B7
:10572000C007902B081220C3902B0BF1B9D0079023
:10573000263C12207A9026401220E3E4902663F063
:10574000D3902644E0941E902643E094004001222A
:105750007B017A267945902643E0FFA3E0902A3525
:10576000CFF0A3EFF090263C12201D124AA1902604
:10577000401220C3E94A600B902663E0F582F1B342
:10578000FF80027F00902663E02445F582E4342602
:10579000F583E06F6002C322902663E004FFF0D33C
:1057A000902644E09F902643E0940050C1221220AE
:1057B000C38E82758300021C4DE0FFA3E090264358
:1057C000CFF0A3EFF022902BD7ECF0A3EDF0AA07D7
:1057D000AF03EF70010FEF75F00AA4FFAEF0EA120D
:1057E000683E12580DEA124444EEF0A3EFF0902BFD
:1057F000DAE0FFEA124454EFF0902BD7E0FEA3E08A
:10580000FFEA75F007A424ADF582E43424F583EEB5
:10581000F0A3EFF02290277912207AE4F5FF75BB10
:105820000575BB8575FF0175D502204E04D106F1C3
:105830005675FF0143D520304E0201D7E4F5FF53E2
:105840008EF7438E077D04E4F5FF8DBCF5FF43B171
:1058500002E5B130E2FBE4F5FFAFDFEFFEACDEECDA
:10586000FBEBFFED25E02477F582E43427110DE40E
:10587000F5FFF5FF53B1FD0DEDB40CCB9027795139
:10588000AD7809121FDDA3EEF0A3EFF0E4FDED25E6
:10589000E02481F582E43427F583E0C313FAA3E022
:1058A00013FBF129F5831267932BFFEE3AFEF129E2
:1058B000110DED240490120DF0EDC394075018CF94
:1058C000EDCF0DEFF12A12446FFFC390277EE09FCA
:1058D00090277DE09E50B7E4F5FF758EC8F5FF90E8
:1058E000120DE0F5BCE4F5FF75BB8075FF01F5D541
:1058F000229026AA12207A9026BA7401F0E4A3F02E
:10590000F17275FF02E5E630E00E9026BB7401F0FF
:10591000FB7A2679BB1266CC9026C5122086002D14
:10592000C6C0E4F5FFF5A490120FF09026BC7402F7
:10593000F075FF039026BCE0FFF595EF146013149B
:10594000601C240270279026AA51ADF1AA9026B6B9
:1059500080169026AE51ADF1AA9026B7800A902607
:10596000B251ADF1AA9026B8E09026C9F012749910
:105970009026C9E07005127690806690120EE004C1
:10598000F09026BCF1C9F5F49026BBE0701A902681
:10599000C551AD9026C1F1B0FBC3121FCC50099088
:1059A00026C151ADA312207A9026C9E0FF12731AC6
:1059B0009026B9E0FF9026BCE0FDA252924F1274EF
:1059C000479026BBE070129026C151AD902BEB1290
:1059D000207A9026BCE0FF91289026BCE051A0D10F
:1059E000E7F1DF600221319026BBE07043A374022F
:1059F000F075FF039026BCF1D770119026C571FE9B
:105A00007801121FDD9026BC518DD1E7F1DF70E1E6
:105A10009026C5F1E82420FFEE344E9120E4FB7A75
:105A200004F9F8910E7801121FDD9026BD12207A3C
:105A3000126721400343F420A252925012737990CE
:105A400026BBE024FF924E9026BD51ADF1BBE4F59C
:105A5000FF75E5081276ADE59B30E7FBF1417F1459
:105A6000124771F1A443D50412476F71D8D10E7B50
:105A7000017A2679BA1272C290120EE0B40102F1D4
:105A8000D09026BAE0B40103D38001C322E0FB2505
:105A9000E025E02401F582E43412F58312207AEB4C
:105AA00025E025E02401F582E43412F583E0FCA32F
:105AB000E0FDA3E0FEA3E0FF229026E712207AF1AA
:105AC000729026FC122086002DC6C0E4F5FFF5A4D6
:105AD00090120EF0A3F09026F77402F075FF039079
:105AE00026F7E0FFF595EF14601314601C24027094
:105AF000279026E751ADF1239026F380169026EBF0
:105B000051ADF1239026F4800A9026EF51ADF12398
:105B10009026F5E0902700F0127499902700E0702D
:105B200005127690805690120EE004F09026F7F160
:105B3000C9F5F49026FC51AD9026F8F1B0FBC312E4
:105B40001FCC50099026F851ADA312207A9027005F
:105B5000E0FF12731A9026F6E0FFA3E0FDA2519237
:105B60004F127447A351AD902BEB12207A9026F779
:105B7000E0FF91289026F7E051A0D1E71276F0607F
:105B80000241DC7402F075FF039026F7F1D770161E
:105B9000FF7E04FDFC9026FC91037801121FDD902E
:105BA00026F7518DD1E71276F070DB1267214003A2
:105BB00043F420A25192501273799026FCF1E8240C
:105BC00020FFEE344E9120E4FB7A04F9F8910E7830
:105BD00001121FDDC24EF1BB9012137401F07E1250
:105BE0007F01E4FD8F828E83EF2DF582E43EF58305
:105BF000E0FC901213E02CF00DEDB412E722FF7ED2
:105C000004FDFCE0F8A3E0F9A3E0FAA3E0FB121E18
:105C10007EE47B7DFAF9F8121F09EF2401FFE43ED0
:105C2000FEE43DFDE43CFC22902BEAEFF0E4A3719E
:105C3000FE7801121FDD902BEAE0FBF135F58312AF
:105C4000207A901210E064806073E0C3947F503932
:105C5000EBF135F583C083C08251ADEEC0E0EFC0FB
:105C6000E0901210E075F004A4AEF0FBCAEECAEAB0
:105C70003395E0F9F8D0E0FFD0E0FEC3EF9BFFEEF4
:105C80009AFEED99FDEC98802C902BEAF134F58387
:105C9000C083C082F1B0FB901210E0F40475F004F0
:105CA000A4FFAEF0EE3395E0FDFCEB2FFFEA3EFEE5
:105CB000E93DFDE83CFCD082D08312207A22902975
:105CC000BE1267069029C4122086000000019029A8
:105CD000C87401F0F5FFE5D554C070051246FB50BD
:105CE00002C322E4F5FF53967F75FF0175D504D1F9
:105CF0000675FF0143D508E4F5FF5394FBF5FF5308
:105D0000847FF5FF7598FF9029C2E5F4F075F49C47
:105D100075FF01A3E5E4F075E4257B017A2979C8D4
:105D20001266CC9029C8E064016002A1E4F5FF90FE
:105D300029C17414F09029C451AD7801121FF0905C
:105D400029C412207AE5A730E1FB43A7029029C4B9
:105D500051ADE5A730E005E47B018002E4FBFAF9F0
:105D6000F8EF4BFFEE4AFEED49FDEC48FC9029C4EC
:105D700012207A9029C1E014F070BA9029C451AD74
:105D80007810121FDD7B6D7A4E79C67841121E7E27
:105D9000EF2439FFEE34309120E4FBFA7901F81258
:105DA0001F09EE547FFEE4FDFC126E779029C4516A
:105DB000ADEB6FFFEA6EFEE8CDEFCDCCEECCECFFA5
:105DC0009029BE1266C3EF121CCF9029BE1266C383
:105DD000900001ED121CE190120FE030E606E4F5B0
:105DE000FF75968075FF01E4F5D59029C2E0F5F4C2
:105DF00075FF01A3E0F5E41273689029C8E0B401CF
:105E000003D38001C3227F3FFED11712477675FF6F
:105E100003E59120E7FB2275FF03D3EF9402EE9494
:105E200000400874FE2FFF74FF3EFEEFF592EE5423
:105E30000FF59122E4902C47F0A304F0E4902C4A53
:105E4000F0E5FA30E1FB75FF01E5D530E7037F00AF
:105E500022E4F5FF75E50812632BE5D530E61A75E7
:105E6000FF01902C49E5DAF0E4F5DA75FF01E5D69B
:105E700030E3FB902C4A7401F01276ADE59B30E7DD
:105E8000FBE4FB75FF038B95519FD1E70BEBB4034C
:105E9000F275FF03759580F1417F14124771F1A4EB
:105EA00043D504902C4AE07007F14F12476FD10E92
:105EB0007B017A2C79481272C2902C48E0902C47D2
:105EC0007006E04404FF8002E0FF902C47EFF09062
:105ED000120EE0B40102F1D075FF01902C49E0F5FB
:105EE000DA902C47E0FF22902C4312207A75FF01B4
:105EF000902C43A3E0FDA3A3E4FFFEE4FC78101282
:105F00001FDD8FE1902C43A3A3E0FEA3E4FFE4FD9B
:105F1000FC7808121FDD8FE2902C43A3A3A3E0FFBF
:105F20008FE3229026F802207AED25E0247FF58287
:105F3000E4342722E025E025E02401F582E4341250
:105F400022E4F5FF758EC8F15675FF0153D5FB7538
:105F5000FF03E4F59122E4F5FF75C2E17F1E1267AD
:105F60000F30E707E4F5FF75C2A122E4F5FF75C223
:105F7000812275FF0243E18012474475FF01438E81
:105F80001075FF0153DB7F75FF0175D5027F141279
:105F90004771F1A4438E1075FF0143DB8075FF014B
:105FA000E4F5D522D10E75FF01229026C102207A98
:105FB000E0F8A3E0F9A3E0FAA3E0221115E4F5FF6D
:105FC000E5BD54F84404F5BD22E033333354F822E0
:105FD00075FF0143D81022E0F595E5F454072290AF
:105FE00026BCE0FF14F0EF22E0FCA3E0FDA3E0FEFE
:105FF000A3E022902BDB126032EBF07FFFA3E0F9ED
:10600000E9C3940C5024E9124444E0FCA3E04C7032
:1060100016AF01902BDBE0FC112BA3E0902BDAF004
:106020001257C6E904FF220980D622A3E0FDA3E0AF
:10603000FB22EEF0A3EFF0A3EDF0A322902C83114E
:1060400032EBF011B8AC00AD01AE02AF03C006C038
:1060500007902C83F193FBAA06E4F9F8D007D00649
:10606000D3121FB67E0050047F0180027F00C0065D
:10607000C00711B8D0E02FFFD0E03E902C83F0A3F2
:10608000EFF053ECFC902C83E0FCA3E0FDEC540318
:1060900042EC75FF02EDF5AF75ED0275ED04A3E07E
:1060A000600543EC08800353ECF7902C86E0600415
:1060B00043EC042253ECFB22902C83E0FEA3E0FB94
:1060C000AA06E4F9F87F807E387D01FC0224FD9069
:1060D0002B0D1135EBF0902B137401F0C2537FE8B8
:1060E0007E0312470331EC5005E5FC20E6F751D45E
:1060F000BF0108E4F5FC75FC40800751D4BF0202E3
:10610000D322712B902B0EE0FF1274D275FF015336
:10611000D5DF53FAFB902B0DE0FF12477D902B0E3D
:10612000E0902B0DB4080F125F34F583125FE82462
:1061300052125C1D8004E0125AA0125EE7902B0FF1
:10614000E0FFF17F75FF0175FF03759B047FE87E1B
:106150000312470375FC42E5FC20E10431EC40F4F6
:10616000902B10E0F075FF03E59B20E70431EC4035
:10617000F4E59B20E70D75FF03759B1F124744D282
:1061800053804E31E5D1CC902B0EE0FD90120FE004
:106190005D701D902B0DE0FF31E5126C1290120F17
:1061A000E0FF902B0EE0FEEF4E90120FF0125BD846
:1061B000125F567B017A2B7911B1CA500FC3902B15
:1061C00012E09420902B11E0940340E731E5127225
:1061D000C2125E0E30530201D6902B13E0B40103BD
:1061E000D38001C3227B017A2B79132275FF03E54B
:1061F00091C330E701D322C234E4902C8AF0C23537
:10620000A3F0A3F075FF01E5D520E702C322C25534
:1062100051B320340241A553F4DF902C8AE0FF12E1
:10622000477D125FD030350543F440800353F4BFFF
:10623000E4F5FF53F5F0902C8BE0FAA3E0FBEA4283
:10624000F5EBF5F6D25551B312476FE4F5FFE59340
:1062500020E60431EC40F4303557E5F430E3047DBA
:10626000288010E5F430E2047D288007E5F430E171
:10627000027D28125F4F7F2812477131EC40FC7F6E
:106280007812477131EC502951FF50F87126EFC355
:106290009D50F151FF50EDE5F720E5E8C25551B3AF
:1062A000125F4F80DF53F4BFF127400543F42071A4
:1062B0002BD322AFF4EF547FF5F4305505EF448033
:1062C000F5F475FF01E5D520E702C322E5F4D330EC
:1062D000E601C3227FFA124771E5FC30E60431EC97
:1062E00040F7E5FC30E6037F032275FF01E5D5307A
:1062F000E6037F0222E5D57F0030E7027F012275A9
:10630000FF01E5E43322E4FFE5F754C060028016A4
:1063100075FF01E5D530E30D51FF50F47126EF60B4
:10632000EF51FF50EB22F117AFD92275FF0153D87F
:10633000EF22302A04C22A31F722C0E0C0F0C08325
:10634000C082C0D075D008C0FF75FF01E5D530E62A
:10635000047F028009E5D57F0030E7027F018F18B6
:10636000E518640260028116E5141221F0638601CB
:1063700063990264030863A40963AF0A63BD0B63F6
:10638000DA0C0000658B75FF0175C355151AE51A07
:106390006002A18B751402A18B75FF0175C3F075A6
:1063A0001409A18B75FF0175C35575140AA18B756E
:1063B000FF01900638E0F5C375140BA18B75FF0142
:1063C000900625E0F5C3751401751A14900647F17F
:1063D000AD6002A18B75140CA18BAB1CAA1DA91E6C
:1063E000B1BEAD16AF1FF1CEE4FB7D01FF126B4BCA
:1063F00075FF00F1A443FA0475FF001247C7751436
:1064000008A18BC2EB751400431504F1DB4002A117
:106410008B124D91A18BE51864016002A18BF1856F
:106420004002A18BE5107025B19FE0FF6455600428
:10643000EFB4540ED22A9024FDE0A3E0900645F07C
:10644000A10975100275FF0075D908A18BE51064CC
:10645000027063B1B0E5D9121CCF1274FC127086C1
:10646000900624EFF0B1A6F583E090066DF0E0FF12
:10647000D394094025900624E0D39402400CEFD336
:1064800094AA7F0040027F01800D90066DE0D394B6
:10649000407F0040027F01EF60047132806B900604
:1064A0006DE0F516F1B790121DEFF075FF0085163F
:1064B000D9751003A18BE51064036002A18BB1B004
:1064C000F18CFAE5D9121CCF713275FF00900624C9
:1064D000E0C39403E5D350055402FF80035401FF49
:1064E000EF602B30E111C3900632E094FF9006314B
:1064F000E094FF5014800FC3900634E094FF9006A0
:1065000033E094FF5003124D9112479D807DC25499
:1065100012454275FF001247D5E5D120E0FBC2EBE2
:10652000431502B19FA3E0FF90121FE0FEEF6EB192
:106530009EE090121EB198A3A3E0901220B198A300
:10654000A3A3E0FE901221E0FDEE6D4F6012C39018
:106550000636E094FF900635E094FF5003124D910B
:10656000C3900630E094FF90062FE094FF50031292
:106570004D91751000900624E0B403091516B1A6DC
:10658000F583E516F09003C2E516F0D0FFD0D0D029
:1065900082D083D0F0D0E032FEE0FDEE6D4FFF857B
:1065A000128285118322E5122407F582E435112237
:1065B00075FF01F5EA75EAFF9006280220C3E4F5AD
:1065C000FFE9F19BEA540F42D622B1DFAD94EF4DC3
:1065D000D1FE8FF0121E44E591C330E701D322753E
:1065E000FF03AF93EF75F010A4FF22CDEFCDCCEEFB
:1065F000CCB1DFAB94EF4BD1FECBEFCBFAE59130D2
:10660000E71DB1E2A994E9F582EF4582FFEB2DF594
:1066100082EA3CF583C3EF9582E5F0958340DEE5A1
:106620009120E709CEECCECFEDCF125E0922902C5F
:106630004FEFF0A3F10675FF0151D4EF6401600242
:10664000C322E5F430E602C3227FE87E03125E1720
:10665000124776D1AA400122C254124542902C4FD3
:10666000E0FF12477D53F4DFD2541245427F787E1B
:1066700000B1EB75FF0153E4BFE5E430E7FBF11730
:106680007F8AF10F30E605D1C0E4800775FF01D1A4
:10669000C0E5D9121CCF75FF0143E440F127400348
:1066A00043F420D1AA400122D322E5F730E50FE5DB
:1066B000F754C0700431EC40F1125F4FC322D32273
:1066C000902C50E0FBA3E0FAA3E0F922902C87F194
:1066D000067F017C127D01E4FE8D828C83ED2EF518
:1066E00082E43CF583E02FFF0EEEB412EC9012131F
:1066F000E06F6009902C87D1C3E4121CCF2224FBE9
:10670000FFE5F034FF22EBF0A3EAF0A3E9F022FE6C
:10671000B1EB90120FE02275FF01E4F5EA75EAFF94
:106720002275FF0375958090120EE0D3940122909C
:106730000658EFF0900626E0FF126EBA900659EF69
:10674000F0900626E024FD6013047008900657744C
:1067500004F0800E9006577408F080069006577477
:1067600002F07F01121AB6900659E0FF900657E03A
:10677000FDA3E0FBE4902B10F011CF50EAD322757B
:10678000FF018FDA22E5F754C024FF22E92401F942
:10679000E43A22E0C313FEA3E01322F5D7E4F5FFA9
:1067A00053D6F022E5D254804414F5D22274FFF57A
:1067B000F0121DA045F022E5F45418131313541FD2
:1067C000FF22E4FB7D01E4902BDFF0025FF3E4F5B0
:1067D000FF8FD4F5FFCFEDCF8FD522C390062CE0ED
:1067E00094FF90062BE094FF22902AB9F07E1A7F46
:1067F000F27BFF7D64902BDF7402F0025FF312687E
:1068000021501412683DF58312681A600AEF124491
:1068100044ECF0A3EDF00EAF0622E0FCA3E0FD4C4B
:1068200022E4FE1FEFC3940C221121500D113DD123
:1068300058EF124444E4F0A3F00EAF0622EF75F0D7
:1068400007A424ABF582E4342422E4900637F07BDD
:10685000017A067946121C34FF1129E4021CCF90FC
:10686000064F1220E3D248C2EBE514600241D8E59E
:106870001530E202C32251E0E924E5D15FF11F9017
:10688000064F51E65407FF900626F0D1BA90065203
:10689000EFF0E51520E07A1246FB40057F01124437
:1068A000FF900652E0FF7B017A06795312662EE4D0
:1068B00033FF51E0E924E6718C121C7AEF7004D2A8
:1068C000EB41B6900652E02421D16FE0FF900653D1
:1068D000E0D39F403CD2EBD1CAA22992ED9006377B
:1068E000E0601151E0E924E5718C121CCF431504DE
:1068F000114AD322900646E070157B017A0679464C
:106900007C707D07902AF67464F0E4A3F07193C361
:10691000221246FB5005C2541245421247D2E5D11D
:1069200020E0FBE4F510C22A90064F51E65407C35D
:106930009403E49400503151E0E924B151FCFF513B
:10694000F32FFFE433FED3EF9440EE648094804055
:106950001751E0E924E5F9E43AFA7402121CCF4336
:106960001504A22992EDD32251E0E92408F9E43A72
:10697000CFE9CFF5118F1251E0E924B151FCF516A2
:10698000AE11D1DD51E0E924B2F9E43A8B1CF51DDA
:10699000891E51F3F51F90064F51E6FDACF054608F
:1069A000603151E0E924D951FCFFD1F9C248713678
:1069B000121C34FB7A00900647D1677D18121D0324
:1069C000EF2BFFEA3EFEEF2414FBE43EFA7D027F4C
:1069D0000141A490064F51E65407900626F0751425
:1069E0000890064F71D61265BE51F3FFAD161267BF
:1069F000CE900626E0640370237B01FD7106717F53
:106A000050057401121C7AE4F5FF1267A4121C34BD
:106A10002428FBE433FA7D03E4FF41A4900626E03A
:106A2000640270257103717F400574FF121C7AE4C3
:106A3000F5FFE5D25480440AF5D2121C342414FB2D
:106A4000E433FA7D027F01805BE47103717F4005CE
:106A500074FF121C7AE4F5FF90064F51E64410458E
:106A6000F07F0560027F0AEF547FFFE5D254804F2C
:106A7000F5D2E4F5FF43D2807136121C34FD7C0060
:106A800090064F51E6441045F07E0060047F0A8076
:106A9000027F05EF25E0FFEE33FEEF2DFBEE3CFA23
:106AA0007D017F01F14590064F51E6FFAEF0A2480F
:106AB0009247B19D4006A22992EDC322114A900649
:106AC00052E0FF51E0E924E8F9E43AFAEF121CCF72
:106AD000A22992EDD2EBD322A22992EDD2EBC322CE
:106AE00090064F0220C31220C3E92404F9E43AFAC5
:106AF000021DCC90064F1220C3E924D8F9E43AFADB
:106B0000021C34FB7D01FF714B90064F1220C3E93C
:106B100024B1F9E43AFA121C34FF90064F1220C354
:106B2000E924D8F9E43AFA121C342FFFE433FEEFDB
:106B30002401FFE43EFE90064F1220C3E924B2F97F
:106B4000E43AFAE92407F9E43AFA22E4F5FF75D1C8
:106B500002E5D120E0FBE4F5FFF5D1EF6008E4F5B4
:106B6000FF43D2808006E4F5FF53D27FEB6006E45A
:106B7000F5FF43D104ED6006E4F5FF43D10822128E
:106B80001C34D39FEE6480F874809822F9E43AFABA
:106B9000740122902AF11220E3902AF11220C311ED
:106BA00055AE04AF05902AF6E0FDA3E0FB1267C6E0
:106BB000902AF11220C3EF121CCF902AF171D0B4A9
:106BC000FF04E4121CCF902AF171D0FF22EDF0A354
:106BD0001220C3021C341220C3E924B2F9E43AFAA9
:106BE00022900627E0FDFFC3740E910BEFC4F8540A
:106BF0000FC868FFEEC454F048FEE51754F0C371A7
:106C0000837F005002AF0522FFE0C39FFFE49400A2
:106C1000FE22902C4BEDF0901211E0F46005A3E001
:106C2000B4FF0C902C4D7418F0A37413F0801090E6
:106C30001211E0902C4DF0901212E0902C4EF012B8
:106C40001C3464016002A176902C4BE0FE64086065
:106C500004EEB40408902C4C7428F08006902C4C60
:106C6000743AF0EF125AA0121FA8B177EF24D8FFA0
:106C7000EE343FFEED3493FDEC3416FC7B007A805D
:106C8000790378001224FDD177902C4EE0902C4DA2
:106C90009108E4FCFD121E7EECC0E0EDC0E0EEC009
:106CA000E0EFC0E0902C4EE0FFE4FCFDFEB178D0B8
:106CB000E0FBD0E0FAD0E0F9D0E0F8EB2FFBEA3EC1
:106CC000FAE93DF9E83CF8902C4CE0FFE4FCFDFECD
:106CD000121E7EEF2454FFEE340B125C20E47BA8DE
:106CE0007A16F9F81224FDCBEFCB902C4BE0146010
:106CF0005D14601B24FE600C24FC707AE4F5FF75C3
:106D0000CE318006E4F5FF75CE21F5FF8BCF22E46E
:106D1000FAE4F5FFEA2440F5CEE4F5FFEAFFC37498
:106D200007910B74E82FF582743D3EF583E4B18042
:106D3000C39DF5CFE4F5FFEA2448F5CEE4F5FFEA7C
:106D4000903DE8B1802DF5CF0AEAB408C422E4F5FD
:106D5000FF75CE01F5FF8BCFF5FF75CE0EF5FFEB7E
:106D600025E0F5CFE4F5FF75CE0FF5FFCFEBCFEBC8
:106D700075F003A4F5CF22E47B64FAF9F8021E7ED5
:106D80009325E0FDE433FCEB75F010A4FFAEF012A8
:106D90001D15CDEFCDEBFFE4C313EF132243150117
:106DA0005315DFB1DF12672F4004E4F5142243FAD4
:106DB000045315FB3047051247C4800A7F55B1C8FC
:106DC0007F55B1C8D2EBD32275FF01E5D520E6028D
:106DD000C322E5FA540360FA75FF018FC3D322EF93
:106DE00030E303AF1322AD1B202B04EE30E00BE5A4
:106DF00017C394F0502071E18018E5196006FDE496
:106E0000F5198012E517C394F0500BE517540FFFE6
:106E10006004D119AD07AF0522D184FFC3940E40A1
:106E2000027F0DEF903D7993FF22CEEFCE75FF01EB
:106E3000E5D520E602C32243FA04E4FDEDC39E50EB
:106E4000077F55B1C80D80F4E5FA543070047F0F08
:106E500080027FF0B1C8D322F583E4F0A3F022F9D9
:106E6000E43AFAE4021CCFE0FEA3E0FF7C0022F546
:106E700082E43422F58322C8ECC8C9EDC9CAEECA3F
:106E8000CBEFCB22E517C4540FFEEF903D97932E26
:106E900022E517C394F0501F5317F0D184FE740FEE
:106EA000C39F4005EE940E400543170D8003EF424B
:106EB00017E517540FFF227F0022EF24FD600680A4
:106EC000007E018002E4FEAF0622C390062EE0940D
:106ED000FF90062DE094FF5003124D9122E4F5FF40
:106EE000EFF5D8E4F5FF53D60FEE540FC4F854F085
:106EF000C8E4C4540F4842D622751401751A139081
:106F00000638EFF09006267402F0ED90064730E563
:106F100007E4F0A3743AF022E4F0A374E6F02290C0
:106F2000121EE0F4FFA3E06FFFA3E06FFFA3E06F8A
:106F3000FF644A6009EF640A6004EFB455010F90E2
:106F40000625EFF02290065DEFF0ED24FE601914A7
:106F500060262402703BEB2402FFE43AFE7C007DB5
:106F600050121D037D60801EF1B4C333CE33CED8E2
:106F7000F9FF7C007D28800EF1B4C333CE33CED828
:106F8000F9FF7C007D64121D1590065EEEF0A3EF04
:106F9000F090065DE0F1C6C083C0821220399006F1
:106FA0005FE02401FF90065EE03400F1BFD082D0A4
:106FB0008302207AEB2401FFE43AFEEF780322FEFD
:106FC000E4FCFD021E6325E025E02439F582E4346B
:106FD00006F58322EFF1C612201D022003AD07AC97
:106FE00006124761C3EF9DEE9C4008EF9DFFEE9CAB
:106FF000FE8013EDF4FDECF4FCED2401FDE43CFC1B
:10700000ED2FFFEC3EFE22E4900646F0900637049A
:10701000F0221246FB500411234003302A03D38090
:1070200001C322E5F754E024FF22AF14EFC360014F
:10703000D322EFC3940E5005900627EFF022E517F8
:10704000540FFF22E51754F0C4540F2FFFC39410C0
:1070500040027F0FEF903D8793FF227E10EE600984
:107060001EEE903D8793B507F4EEC3940E40027E6A
:107070000DEE903D7993FF22E4F51402451AC2AF5C
:10708000EF4215D2AF22EF24FE600C24FE60058093
:10709000007F01227F02227F0322E51520E50812EE
:1070A00047CEE5D120E0FBE4F510221267DB500368
:1070B000124D9122900647E0A3E0FF22E4900639AA
:1070C00011D3E490063D11DAE4FFFEFDFC90064189
:1070D00002207AFFFEFDFC02207AFFFEFDFC02206A
:1070E0007AA2EB924AC2EB7A06792B7B017D0CE403
:1070F000FF121958A24A92EB22A2EB924BC2EBEB81
:10710000C0E0EAC0E0E9C0E07B017A06792B902B71
:107110001F1220E3D0E0F9D0E0FAD0E0FB7F0C12A0
:107120001980A24B92EB227F017E009017FCE49322
:107130005EFE7401935F4E24FFB322900001740140
:1071400093B40007E493B41802C322D322EF60077C
:1071500075FF0243E6102275FF0253E6EF22EF703F
:1071600011ED600775FF0143AE012275FF0153AEBB
:10717000FE22EFB40114901232EDF0600775FF01AA
:1071800043AE022275FF0153AEFD2275FF02E5E614
:1071900030E2037F0322E5E630E3037F0022E5E6E9
:1071A00030E1037F0422E5E67F0530E0027F012223
:1071B000EF600775FF0253E6BF2275FF0243E6400A
:1071C00022EF14600F146014240270188B8075FF76
:1071D000018DFD228B9075FF018DC9228BA075FF5B
:1071E000018DCA22AF038FB075FF01AF058FCB228F
:1071F000902AF91220E3EF14601114601824027031
:107200001E512AE5805130E5FD801C512AE5905140
:1072100030E5C98012512AE5A05130E5CA800851F5
:107220002AE5B05130E5CB021CCF902AFC0220C3E6
:10723000121CCF75FF01902AF90220C3E4F5FFAFBD
:107240009122E4F5FFAF9222902855E0121CCF90D6
:10725000285AE0900001121CE190285BE0900002A7
:10726000021CE1E4FF023FCA123FF5124A38EF6008
:107270000512483580F522902857E0FF22E4902837
:1072800057F022E4F5FF75D102E5D120E0FBE4F5EB
:10729000D1F5FFEF12679BEE540F42D6E4F5FFCF16
:1072A000EDCF8FD422E4F5FF8FD422E4F5FFE5D1B2
:1072B000540133333354F8FFE4F5FFE5D354074F5B
:1072C000FF22C24D75FF03759B1F75FF0390120FC0
